{
  "contractName": "ProofOfExistence3",
  "abi": [
    {
      "inputs": [],
      "payable": false,
      "stateMutability": "nonpayable",
      "type": "constructor"
    },
    {
      "constant": false,
      "inputs": [
        {
          "internalType": "bytes32",
          "name": "proof",
          "type": "bytes32"
        }
      ],
      "name": "storeProof",
      "outputs": [],
      "payable": false,
      "stateMutability": "nonpayable",
      "type": "function"
    },
    {
      "constant": false,
      "inputs": [
        {
          "internalType": "string",
          "name": "document",
          "type": "string"
        }
      ],
      "name": "notarize",
      "outputs": [],
      "payable": false,
      "stateMutability": "nonpayable",
      "type": "function"
    },
    {
      "constant": true,
      "inputs": [
        {
          "internalType": "string",
          "name": "document",
          "type": "string"
        }
      ],
      "name": "proofFor",
      "outputs": [
        {
          "internalType": "bytes32",
          "name": "",
          "type": "bytes32"
        }
      ],
      "payable": false,
      "stateMutability": "view",
      "type": "function"
    },
    {
      "constant": true,
      "inputs": [
        {
          "internalType": "string",
          "name": "document",
          "type": "string"
        }
      ],
      "name": "checkDocument",
      "outputs": [
        {
          "internalType": "bool",
          "name": "",
          "type": "bool"
        }
      ],
      "payable": false,
      "stateMutability": "view",
      "type": "function"
    },
    {
      "constant": true,
      "inputs": [
        {
          "internalType": "bytes32",
          "name": "proof",
          "type": "bytes32"
        }
      ],
      "name": "hasProof",
      "outputs": [
        {
          "internalType": "bool",
          "name": "",
          "type": "bool"
        }
      ],
      "payable": false,
      "stateMutability": "view",
      "type": "function"
    }
  ],
  "bytecode": "0x608060405234801561001057600080fd5b5061051d806100206000396000f3fe608060405234801561001057600080fd5b50600436106100575760003560e01c806353fb92331461005c5780637183616c1461012f5780638952877b146101ea578063e3d1e6d614610218578063f6c1acdf1461025e575b600080fd5b6101156004803603602081101561007257600080fd5b810190808035906020019064010000000081111561008f57600080fd5b8201836020820111156100a157600080fd5b803590602001918460018302840111640100000000831117156100c357600080fd5b91908080601f016020809104026020016040519081016040528093929190818152602001838380828437600081840152601f19601f82011690508083019250505050505050919291929050505061032d565b604051808215151515815260200191505060405180910390f35b6101e86004803603602081101561014557600080fd5b810190808035906020019064010000000081111561016257600080fd5b82018360208201111561017457600080fd5b8035906020019184600183028401116401000000008311171561019657600080fd5b91908080601f016020809104026020016040519081016040528093929190818152602001838380828437600081840152601f19601f82011690508083019250505050505050919291929050505061034c565b005b6102166004803603602081101561020057600080fd5b8101908080359060200190929190505050610366565b005b6102446004803603602081101561022e57600080fd5b8101908080359060200190929190505050610394565b604051808215151515815260200191505060405180910390f35b6103176004803603602081101561027457600080fd5b810190808035906020019064010000000081111561029157600080fd5b8201836020820111156102a357600080fd5b803590602001918460018302840111640100000000831117156102c557600080fd5b91908080601f016020809104026020016040519081016040528093929190818152602001838380828437600081840152601f19601f8201169050808301925050505050505091929192905050506103bd565b6040518082815260200191505060405180910390f35b600080610339836103bd565b905061034481610394565b915050919050565b6000610357826103bd565b905061036281610366565b5050565b600160008083815260200190815260200160002060006101000a81548160ff02191690831515021790555050565b600080600083815260200190815260200160002060009054906101000a900460ff169050919050565b60006002826040516020018080602001828103825283818151815260200191508051906020019080838360005b838110156104055780820151818401526020810190506103ea565b50505050905090810190601f1680156104325780820380516001836020036101000a031916815260200191505b50925050506040516020818303038152906040526040518082805190602001908083835b602083106104795780518252602082019150602081019050602083039250610456565b6001836020036101000a038019825116818451168082178552505050505050905001915050602060405180830381855afa1580156104bb573d6000803e3d6000fd5b5050506040513d60208110156104d057600080fd5b8101908080519060200190929190505050905091905056fea265627a7a72315820d7a96aeb73598e476749dfd0388bbaa3a594ebd1355bcd642d607cccae586b0064736f6c63430005100032",
  "source": "pragma solidity >= 0.5.0 < 0.7.0;\n\ncontract ProofOfExistence3 {\n  constructor() public {\n  }\n\n  mapping (bytes32 => bool) private proofs;\n\n  function storeProof(bytes32 proof) public {\n    proofs[proof] = true;\n  }\n\n  function notarize(string memory document) public {\n    bytes32 proof = proofFor(document);\n    storeProof(proof);\n  }\n\n  function proofFor(string memory document) public view returns (bytes32) {\n    return sha256(abi.encode(document));\n  }\n\n  function checkDocument(string memory document) public view returns (bool) {\n    bytes32 proof = proofFor(document);\n    return hasProof(proof);\n  }\n\n  function hasProof(bytes32 proof) public view returns (bool) {\n    return proofs[proof];\n  }\n}\n",
  "sourcePath": "/Users/hurley/GolandProjects/Golid/proof/contracts/ProofOfExistence3.sol",
  "compiler": {
    "name": "solc",
    "version": "0.5.16+commit.9c3226ce.Emscripten.clang"
  },
  "schemaVersion": "3.1.0",
  "updatedAt": "2020-05-14T09:33:10.443Z",
  "networkType": "ethereum",
  "devdoc": {
    "methods": {}
  },
  "userdoc": {
    "methods": {}
  }
}