{
  "contractName": "Existence",
  "abi": [
    {
      "inputs": [],
      "payable": false,
      "stateMutability": "nonpayable",
      "type": "constructor"
    },
    {
      "anonymous": false,
      "inputs": [
        {
          "indexed": true,
          "internalType": "uint256",
          "name": "id",
          "type": "uint256"
        },
        {
          "indexed": false,
          "internalType": "bytes32",
          "name": "hash",
          "type": "bytes32"
        }
      ],
      "name": "ProofCreated",
      "type": "event"
    },
    {
      "constant": true,
      "inputs": [],
      "name": "owner",
      "outputs": [
        {
          "internalType": "address",
          "name": "",
          "type": "address"
        }
      ],
      "payable": false,
      "stateMutability": "view",
      "type": "function"
    },
    {
      "constant": false,
      "inputs": [
        {
          "internalType": "uint256",
          "name": "id",
          "type": "uint256"
        },
        {
          "internalType": "bytes32",
          "name": "hash",
          "type": "bytes32"
        }
      ],
      "name": "notarizeHash",
      "outputs": [],
      "payable": false,
      "stateMutability": "nonpayable",
      "type": "function"
    },
    {
      "constant": true,
      "inputs": [
        {
          "internalType": "uint256",
          "name": "id",
          "type": "uint256"
        },
        {
          "internalType": "bytes32",
          "name": "hash",
          "type": "bytes32"
        }
      ],
      "name": "doesProofExist",
      "outputs": [
        {
          "internalType": "bool",
          "name": "",
          "type": "bool"
        }
      ],
      "payable": false,
      "stateMutability": "view",
      "type": "function"
    }
  ],
  "bytecode": "0x608060405234801561001057600080fd5b50336000806101000a81548173ffffffffffffffffffffffffffffffffffffffff021916908373ffffffffffffffffffffffffffffffffffffffff160217905550610348806100606000396000f3fe608060405234801561001057600080fd5b50600436106100415760003560e01c806315ca41c3146100465780638da5cb5b1461007e578063af519bf5146100c8575b600080fd5b61007c6004803603604081101561005c57600080fd5b810190808035906020019092919080359060200190929190505050610118565b005b61008661029c565b604051808273ffffffffffffffffffffffffffffffffffffffff1673ffffffffffffffffffffffffffffffffffffffff16815260200191505060405180910390f35b6100fe600480360360408110156100de57600080fd5b8101908080359060200190929190803590602001909291905050506102c1565b604051808215151515815260200191505060405180910390f35b6000809054906101000a900473ffffffffffffffffffffffffffffffffffffffff1673ffffffffffffffffffffffffffffffffffffffff163373ffffffffffffffffffffffffffffffffffffffff16146101bd576040517f08c379a00000000000000000000000000000000000000000000000000000000081526004018080602001828103825260328152602001806102e26032913960400191505060405180910390fd5b816000600160008381526020019081526020016000205414610247576040517f08c379a000000000000000000000000000000000000000000000000000000000815260040180806020018281038252601b8152602001807f4e6f20686173682065786973747320666f7220746869732069642e000000000081525060200191505060405180910390fd5b816001600085815260200190815260200160002081905550827ffbbf8dad2632e75bc114426ca0d629c0beb6c4531599e68d148c70fbb4ffae6f836040518082815260200191505060405180910390a2505050565b6000809054906101000a900473ffffffffffffffffffffffffffffffffffffffff1681565b60008160016000858152602001908152602001600020541490509291505056fe4f6e6c7920746865206f776e657220697320616c6c6f77656420746f2061636365737320746869732066756e6374696f6e2ea265627a7a723158206611b21324e492c777ab5c4569d0b62b4e40bae6626213537530dfcd1104638064736f6c63430005100032",
  "source": "pragma solidity >= 0.5.0 < 0.7.0;\n\ncontract Existence {\n\n    event ProofCreated(\n        uint256 indexed id,\n        bytes32 hash\n    );\n\n    address public owner;\n\n    mapping (uint256 => bytes32) hashesById;\n\n    constructor () public {\n        owner = msg.sender;\n    }\n\n    modifier onlyOwner() {\n        require(msg.sender == owner, \"Only the owner is allowed to access this function.\");\n        _;\n    }\n\n    modifier noHashExists(uint256 id) {\n        require(hashesById[id] == \"\", \"No hash exists for this id.\");\n        _;\n    }\n\n    function notarizeHash(uint256 id, bytes32 hash) public onlyOwner noHashExists(id) {\n        hashesById[id] = hash;\n        emit ProofCreated(id, hash);\n    }\n\n    function doesProofExist(uint256 id, bytes32 hash) public view returns (bool) {\n        return hashesById[id] == hash;\n    }\n}\n",
  "sourcePath": "/Users/hurley/CrowdTaskManagementFrontend/SocialProof/solidity/contracts/Existence.sol",
  "compiler": {
    "name": "solc",
    "version": "0.5.16+commit.9c3226ce.Emscripten.clang"
  },
  "schemaVersion": "3.1.0",
  "updatedAt": "2020-05-15T15:32:59.360Z",
  "devdoc": {
    "methods": {}
  },
  "userdoc": {
    "methods": {}
  }
}