{
  "contractName": "Lockable",
  "abi": [
    {
      "inputs": [
        {
          "internalType": "uint256",
          "name": "_datelimit",
          "type": "uint256"
        }
      ],
      "payable": false,
      "stateMutability": "nonpayable",
      "type": "constructor"
    },
    {
      "anonymous": false,
      "inputs": [
        {
          "indexed": true,
          "internalType": "uint256",
          "name": "dateLimit",
          "type": "uint256"
        }
      ],
      "name": "LogDateLimitUpdated",
      "type": "event"
    },
    {
      "anonymous": false,
      "inputs": [
        {
          "indexed": true,
          "internalType": "address",
          "name": "previousOwner",
          "type": "address"
        }
      ],
      "name": "OwnershipRenounced",
      "type": "event"
    },
    {
      "anonymous": false,
      "inputs": [
        {
          "indexed": true,
          "internalType": "address",
          "name": "previousOwner",
          "type": "address"
        },
        {
          "indexed": true,
          "internalType": "address",
          "name": "newOwner",
          "type": "address"
        }
      ],
      "name": "OwnershipTransferred",
      "type": "event"
    },
    {
      "constant": true,
      "inputs": [],
      "name": "owner",
      "outputs": [
        {
          "internalType": "address",
          "name": "",
          "type": "address"
        }
      ],
      "payable": false,
      "stateMutability": "view",
      "type": "function"
    },
    {
      "constant": false,
      "inputs": [],
      "name": "renounceOwnership",
      "outputs": [],
      "payable": false,
      "stateMutability": "nonpayable",
      "type": "function"
    },
    {
      "constant": false,
      "inputs": [
        {
          "internalType": "address",
          "name": "newOwner",
          "type": "address"
        }
      ],
      "name": "transferOwnership",
      "outputs": [],
      "payable": false,
      "stateMutability": "nonpayable",
      "type": "function"
    },
    {
      "constant": false,
      "inputs": [
        {
          "internalType": "uint256",
          "name": "_newDateLimit",
          "type": "uint256"
        }
      ],
      "name": "setDateLimit",
      "outputs": [],
      "payable": false,
      "stateMutability": "nonpayable",
      "type": "function"
    },
    {
      "constant": true,
      "inputs": [],
      "name": "isLocked",
      "outputs": [
        {
          "internalType": "bool",
          "name": "",
          "type": "bool"
        }
      ],
      "payable": false,
      "stateMutability": "view",
      "type": "function"
    },
    {
      "constant": true,
      "inputs": [],
      "name": "getDateLimit",
      "outputs": [
        {
          "internalType": "uint256",
          "name": "",
          "type": "uint256"
        }
      ],
      "payable": false,
      "stateMutability": "view",
      "type": "function"
    }
  ],
  "bytecode": "0x608060405234801561001057600080fd5b506040516105e53803806105e58339818101604052602081101561003357600080fd5b8101908080519060200190929190505050336000806101000a81548173ffffffffffffffffffffffffffffffffffffffff021916908373ffffffffffffffffffffffffffffffffffffffff160217905550806001819055505061054a8061009b6000396000f3fe608060405234801561001057600080fd5b50600436106100625760003560e01c80635815826414610067578063715018a6146100955780637709d6381461009f5780638da5cb5b146100bd578063a4e2d63414610107578063f2fde38b14610129575b600080fd5b6100936004803603602081101561007d57600080fd5b810190808035906020019092919050505061016d565b005b61009d6101ff565b005b6100a7610317565b6040518082815260200191505060405180910390f35b6100c5610321565b604051808273ffffffffffffffffffffffffffffffffffffffff1673ffffffffffffffffffffffffffffffffffffffff16815260200191505060405180910390f35b61010f610346565b604051808215151515815260200191505060405180910390f35b61016b6004803603602081101561013f57600080fd5b81019080803573ffffffffffffffffffffffffffffffffffffffff169060200190929190505050610352565b005b6000809054906101000a900473ffffffffffffffffffffffffffffffffffffffff1673ffffffffffffffffffffffffffffffffffffffff163373ffffffffffffffffffffffffffffffffffffffff16146101c657600080fd5b806001819055506001547fecee2595f95363c1d47f5700858ce0ccf90393eb052f7b64f8010c223d53cb1460405160405180910390a250565b6000809054906101000a900473ffffffffffffffffffffffffffffffffffffffff1673ffffffffffffffffffffffffffffffffffffffff163373ffffffffffffffffffffffffffffffffffffffff161461025857600080fd5b600073ffffffffffffffffffffffffffffffffffffffff166000809054906101000a900473ffffffffffffffffffffffffffffffffffffffff1673ffffffffffffffffffffffffffffffffffffffff167f8be0079c531659141344cd1fd0a4f28419497f9722a3daafe3b4186f6b6457e060405160405180910390a360008060006101000a81548173ffffffffffffffffffffffffffffffffffffffff021916908373ffffffffffffffffffffffffffffffffffffffff160217905550565b6000600154905090565b6000809054906101000a900473ffffffffffffffffffffffffffffffffffffffff1681565b60006001544211905090565b6000809054906101000a900473ffffffffffffffffffffffffffffffffffffffff1673ffffffffffffffffffffffffffffffffffffffff163373ffffffffffffffffffffffffffffffffffffffff16146103ab57600080fd5b600073ffffffffffffffffffffffffffffffffffffffff168173ffffffffffffffffffffffffffffffffffffffff161415610431576040517f08c379a00000000000000000000000000000000000000000000000000000000081526004018080602001828103825260268152602001806104f06026913960400191505060405180910390fd5b8073ffffffffffffffffffffffffffffffffffffffff166000809054906101000a900473ffffffffffffffffffffffffffffffffffffffff1673ffffffffffffffffffffffffffffffffffffffff167f8be0079c531659141344cd1fd0a4f28419497f9722a3daafe3b4186f6b6457e060405160405180910390a3806000806101000a81548173ffffffffffffffffffffffffffffffffffffffff021916908373ffffffffffffffffffffffffffffffffffffffff1602179055505056fe4f776e61626c653a206e6577206f776e657220697320746865207a65726f2061646472657373a265627a7a72315820e90d47848667782b148b815199e917c3a7006e2410d3a0bd5d66f4df9b2117f364736f6c63430005100032",
  "source": "pragma solidity >= 0.5.0 < 0.7.0;\n\nimport \"./Ownable.sol\";\n\n/**\n * @title Lockable\n * @dev It allows to give a date limit to a contract.\n * After this date the contract is blocked. The owner may postpone the date limit.\n */\ncontract Lockable is Ownable {\n\n    uint256 private dateLimit;\n\n    event LogDateLimitUpdated(uint256 indexed dateLimit);\n\n    /**\n     * @dev Create a new Lockable Contract.\n     * @param _datelimit uint256 date limit of the contract (timestamp as seconds since unix epoch)\n     * (if dateLimit == 0 the contract is permanent)\n     */\n    constructor (uint256 _datelimit) public {\n        dateLimit = _datelimit;\n    }\n\n    /**\n     * @dev sets the date limit.\n     * @param _newDateLimit uint256 new date limit of the contract (timestamp as seconds since unix epoch)\n     */\n    function setDateLimit(uint256 _newDateLimit) public onlyOwner {\n        dateLimit = _newDateLimit;\n        emit LogDateLimitUpdated(dateLimit);\n    }\n\n    /**\n     * @dev return contract status.\n     * @return status (true if the contract is locked)\n     */\n    function isLocked() public view returns (bool) {\n        return block.timestamp > dateLimit;\n    }\n\n    /**\n     * @dev return current date limit.\n     * @return date limit\n     */\n    function getDateLimit() public view returns (uint256) {\n        return dateLimit;\n    }\n\n    /**\n     * @dev Throws if called when the contract is locked.\n     */\n    modifier onlyUnlock() {\n        require(dateLimit == 0 || block.timestamp <= dateLimit);\n        _;\n    }\n\n}\n",
  "sourcePath": "/Users/hurley/CrowdTaskManagementFrontend/SocialProof/solidity/contracts/Lockable.sol",
  "compiler": {
    "name": "solc",
    "version": "0.5.16+commit.9c3226ce.Emscripten.clang"
  },
  "schemaVersion": "3.1.0",
  "updatedAt": "2020-05-15T15:32:59.363Z",
  "devdoc": {
    "details": "It allows to give a date limit to a contract. After this date the contract is blocked. The owner may postpone the date limit.",
    "methods": {
      "constructor": {
        "details": "Create a new Lockable Contract.",
        "params": {
          "_datelimit": "uint256 date limit of the contract (timestamp as seconds since unix epoch) (if dateLimit == 0 the contract is permanent)"
        }
      },
      "getDateLimit()": {
        "details": "return current date limit.",
        "return": "date limit"
      },
      "isLocked()": {
        "details": "return contract status.",
        "return": "status (true if the contract is locked)"
      },
      "renounceOwnership()": {
        "details": "Leaves the contract without owner. It will not be possible to call `onlyOwner` functions anymore. Can only be called by the current owner.     * NOTE: Renouncing ownership will leave the contract without an owner, thereby removing any functionality that is only available to the owner."
      },
      "setDateLimit(uint256)": {
        "details": "sets the date limit.",
        "params": {
          "_newDateLimit": "uint256 new date limit of the contract (timestamp as seconds since unix epoch)"
        }
      },
      "transferOwnership(address)": {
        "details": "Transfers ownership of the contract to a new account (`newOwner`). Can only be called by the current owner."
      }
    },
    "title": "Lockable"
  },
  "userdoc": {
    "methods": {}
  }
}