{
  "contractName": "OriginTransportTickets",
  "abi": [
    {
      "inputs": [],
      "payable": false,
      "stateMutability": "nonpayable",
      "type": "constructor"
    },
    {
      "anonymous": false,
      "inputs": [
        {
          "indexed": true,
          "internalType": "uint256",
          "name": "dateLimit",
          "type": "uint256"
        }
      ],
      "name": "LogDateLimitUpdated",
      "type": "event"
    },
    {
      "anonymous": false,
      "inputs": [
        {
          "indexed": true,
          "internalType": "bytes32",
          "name": "id",
          "type": "bytes32"
        },
        {
          "indexed": true,
          "internalType": "bytes32",
          "name": "sealValue",
          "type": "bytes32"
        }
      ],
      "name": "LogNewSealRecorded",
      "type": "event"
    },
    {
      "anonymous": false,
      "inputs": [
        {
          "indexed": true,
          "internalType": "address",
          "name": "previousOwner",
          "type": "address"
        }
      ],
      "name": "OwnershipRenounced",
      "type": "event"
    },
    {
      "anonymous": false,
      "inputs": [
        {
          "indexed": true,
          "internalType": "address",
          "name": "previousOwner",
          "type": "address"
        },
        {
          "indexed": true,
          "internalType": "address",
          "name": "newOwner",
          "type": "address"
        }
      ],
      "name": "OwnershipTransferred",
      "type": "event"
    },
    {
      "anonymous": false,
      "inputs": [
        {
          "indexed": false,
          "internalType": "address",
          "name": "addr",
          "type": "address"
        }
      ],
      "name": "WhitelistedAddressAdded",
      "type": "event"
    },
    {
      "anonymous": false,
      "inputs": [
        {
          "indexed": false,
          "internalType": "address",
          "name": "addr",
          "type": "address"
        }
      ],
      "name": "WhitelistedAddressRemoved",
      "type": "event"
    },
    {
      "constant": false,
      "inputs": [
        {
          "internalType": "address",
          "name": "addr",
          "type": "address"
        }
      ],
      "name": "addAddressToWhitelist",
      "outputs": [
        {
          "internalType": "bool",
          "name": "success",
          "type": "bool"
        }
      ],
      "payable": false,
      "stateMutability": "nonpayable",
      "type": "function"
    },
    {
      "constant": false,
      "inputs": [
        {
          "internalType": "address[]",
          "name": "addrs",
          "type": "address[]"
        }
      ],
      "name": "addAddressesToWhitelist",
      "outputs": [
        {
          "internalType": "bool",
          "name": "success",
          "type": "bool"
        }
      ],
      "payable": false,
      "stateMutability": "nonpayable",
      "type": "function"
    },
    {
      "constant": true,
      "inputs": [],
      "name": "getDateLimit",
      "outputs": [
        {
          "internalType": "uint256",
          "name": "",
          "type": "uint256"
        }
      ],
      "payable": false,
      "stateMutability": "view",
      "type": "function"
    },
    {
      "constant": true,
      "inputs": [
        {
          "internalType": "bytes32",
          "name": "id",
          "type": "bytes32"
        }
      ],
      "name": "getSeal",
      "outputs": [
        {
          "internalType": "bytes32",
          "name": "",
          "type": "bytes32"
        }
      ],
      "payable": false,
      "stateMutability": "view",
      "type": "function"
    },
    {
      "constant": true,
      "inputs": [],
      "name": "owner",
      "outputs": [
        {
          "internalType": "address",
          "name": "",
          "type": "address"
        }
      ],
      "payable": false,
      "stateMutability": "view",
      "type": "function"
    },
    {
      "constant": false,
      "inputs": [
        {
          "internalType": "bytes32",
          "name": "id",
          "type": "bytes32"
        },
        {
          "internalType": "bytes32",
          "name": "sealValue",
          "type": "bytes32"
        }
      ],
      "name": "recordSeal",
      "outputs": [],
      "payable": false,
      "stateMutability": "nonpayable",
      "type": "function"
    },
    {
      "constant": false,
      "inputs": [
        {
          "internalType": "address",
          "name": "delegate",
          "type": "address"
        }
      ],
      "name": "registerDelegate",
      "outputs": [
        {
          "internalType": "bool",
          "name": "success",
          "type": "bool"
        }
      ],
      "payable": false,
      "stateMutability": "nonpayable",
      "type": "function"
    },
    {
      "constant": false,
      "inputs": [
        {
          "internalType": "address",
          "name": "addr",
          "type": "address"
        }
      ],
      "name": "removeAddressFromWhitelist",
      "outputs": [
        {
          "internalType": "bool",
          "name": "success",
          "type": "bool"
        }
      ],
      "payable": false,
      "stateMutability": "nonpayable",
      "type": "function"
    },
    {
      "constant": false,
      "inputs": [
        {
          "internalType": "address[]",
          "name": "addrs",
          "type": "address[]"
        }
      ],
      "name": "removeAddressesFromWhitelist",
      "outputs": [
        {
          "internalType": "bool",
          "name": "success",
          "type": "bool"
        }
      ],
      "payable": false,
      "stateMutability": "nonpayable",
      "type": "function"
    },
    {
      "constant": false,
      "inputs": [],
      "name": "renounceOwnership",
      "outputs": [],
      "payable": false,
      "stateMutability": "nonpayable",
      "type": "function"
    },
    {
      "constant": false,
      "inputs": [
        {
          "internalType": "address",
          "name": "newOwner",
          "type": "address"
        }
      ],
      "name": "transferOwnership",
      "outputs": [],
      "payable": false,
      "stateMutability": "nonpayable",
      "type": "function"
    },
    {
      "constant": true,
      "inputs": [
        {
          "internalType": "uint256",
          "name": "",
          "type": "uint256"
        }
      ],
      "name": "transport_tickets",
      "outputs": [
        {
          "internalType": "uint256",
          "name": "id",
          "type": "uint256"
        },
        {
          "internalType": "bytes32",
          "name": "ownerName",
          "type": "bytes32"
        },
        {
          "internalType": "bytes32",
          "name": "from",
          "type": "bytes32"
        },
        {
          "internalType": "bytes32",
          "name": "to",
          "type": "bytes32"
        },
        {
          "internalType": "uint256",
          "name": "price",
          "type": "uint256"
        },
        {
          "internalType": "uint256",
          "name": "timeDeparture",
          "type": "uint256"
        },
        {
          "internalType": "uint256",
          "name": "timeArrival",
          "type": "uint256"
        }
      ],
      "payable": false,
      "stateMutability": "view",
      "type": "function"
    },
    {
      "constant": true,
      "inputs": [
        {
          "internalType": "bytes32",
          "name": "id",
          "type": "bytes32"
        },
        {
          "internalType": "bytes32",
          "name": "sealValue",
          "type": "bytes32"
        }
      ],
      "name": "verifySeal",
      "outputs": [
        {
          "internalType": "bool",
          "name": "",
          "type": "bool"
        }
      ],
      "payable": false,
      "stateMutability": "view",
      "type": "function"
    },
    {
      "constant": true,
      "inputs": [
        {
          "internalType": "address",
          "name": "",
          "type": "address"
        }
      ],
      "name": "whitelist",
      "outputs": [
        {
          "internalType": "bool",
          "name": "",
          "type": "bool"
        }
      ],
      "payable": false,
      "stateMutability": "view",
      "type": "function"
    },
    {
      "constant": false,
      "inputs": [
        {
          "internalType": "address",
          "name": "grantee",
          "type": "address"
        }
      ],
      "name": "grantAuthority",
      "outputs": [
        {
          "internalType": "bool",
          "name": "success",
          "type": "bool"
        }
      ],
      "payable": false,
      "stateMutability": "nonpayable",
      "type": "function"
    },
    {
      "constant": true,
      "inputs": [
        {
          "internalType": "bytes32",
          "name": "id",
          "type": "bytes32"
        }
      ],
      "name": "getTicketHash",
      "outputs": [
        {
          "internalType": "bytes32",
          "name": "",
          "type": "bytes32"
        }
      ],
      "payable": false,
      "stateMutability": "view",
      "type": "function"
    },
    {
      "constant": false,
      "inputs": [
        {
          "internalType": "bytes32",
          "name": "id",
          "type": "bytes32"
        },
        {
          "internalType": "bytes32",
          "name": "ticketHash",
          "type": "bytes32"
        }
      ],
      "name": "deliverTicket",
      "outputs": [],
      "payable": false,
      "stateMutability": "nonpayable",
      "type": "function"
    },
    {
      "constant": true,
      "inputs": [
        {
          "internalType": "bytes32",
          "name": "id",
          "type": "bytes32"
        },
        {
          "internalType": "bytes32",
          "name": "ticketHash",
          "type": "bytes32"
        }
      ],
      "name": "isValid",
      "outputs": [
        {
          "internalType": "bool",
          "name": "",
          "type": "bool"
        }
      ],
      "payable": false,
      "stateMutability": "view",
      "type": "function"
    },
    {
      "constant": false,
      "inputs": [
        {
          "internalType": "uint256",
          "name": "newDateLimit",
          "type": "uint256"
        }
      ],
      "name": "setDateLimit",
      "outputs": [],
      "payable": false,
      "stateMutability": "nonpayable",
      "type": "function"
    },
    {
      "constant": true,
      "inputs": [],
      "name": "isLocked",
      "outputs": [
        {
          "internalType": "bool",
          "name": "",
          "type": "bool"
        }
      ],
      "payable": false,
      "stateMutability": "view",
      "type": "function"
    }
  ],
  "bytecode": "0x608060405234801561001057600080fd5b506000336000806101000a81548173ffffffffffffffffffffffffffffffffffffffff021916908373ffffffffffffffffffffffffffffffffffffffff1602179055506100623361008060201b60201c565b50806003819055505061007a3361008060201b60201c565b506101f0565b60008060009054906101000a900473ffffffffffffffffffffffffffffffffffffffff1673ffffffffffffffffffffffffffffffffffffffff163373ffffffffffffffffffffffffffffffffffffffff16146100db57600080fd5b600160008373ffffffffffffffffffffffffffffffffffffffff1673ffffffffffffffffffffffffffffffffffffffff16815260200190815260200160002060009054906101000a900460ff166101eb5760018060008473ffffffffffffffffffffffffffffffffffffffff1673ffffffffffffffffffffffffffffffffffffffff16815260200190815260200160002060006101000a81548160ff0219169083151502179055507fd1bba68c128cc3f427e5831b3c6f99f480b6efa6b9e80c757768f6124158cc3f82604051808273ffffffffffffffffffffffffffffffffffffffff1673ffffffffffffffffffffffffffffffffffffffff16815260200191505060405180910390a1600190505b919050565b611342806101ff6000396000f3fe608060405234801561001057600080fd5b506004361061012c5760003560e01c806365e60550116100ad5780639b19251a116100715780639b19251a146105d9578063a4e2d63414610635578063b8a2f48e14610657578063e2ec6ec31461068f578063f2fde38b1461075f5761012c565b806365e60550146104c9578063715018a61461050b5780637709d638146105155780637b9417c8146105335780638da5cb5b1461058f5761012c565b806324953eaa116100f457806324953eaa146102a7578063286dd3f51461037757806354e677f4146103d357806355a53d581461042f578063581582641461049b5761012c565b8063097b37791461013157806310a0c2741461016957806314a9a77d146101b9578063162002b8146102095780631d6c999d1461024b575b600080fd5b6101676004803603604081101561014757600080fd5b8101908080359060200190929190803590602001909291905050506107a3565b005b61019f6004803603604081101561017f57600080fd5b81019080803590602001909291908035906020019092919050505061087f565b604051808215151515815260200191505060405180910390f35b6101ef600480360360408110156101cf57600080fd5b810190808035906020019092919080359060200190929190505050610893565b604051808215151515815260200191505060405180910390f35b6102356004803603602081101561021f57600080fd5b81019080803590602001909291905050506108b6565b6040518082815260200191505060405180910390f35b61028d6004803603602081101561026157600080fd5b81019080803573ffffffffffffffffffffffffffffffffffffffff1690602001909291905050506108c8565b604051808215151515815260200191505060405180910390f35b61035d600480360360208110156102bd57600080fd5b81019080803590602001906401000000008111156102da57600080fd5b8201836020820111156102ec57600080fd5b8035906020019184602083028401116401000000008311171561030e57600080fd5b919080806020026020016040519081016040528093929190818152602001838360200280828437600081840152601f19601f820116905080830192505050505050509192919290505050610933565b604051808215151515815260200191505060405180910390f35b6103b96004803603602081101561038d57600080fd5b81019080803573ffffffffffffffffffffffffffffffffffffffff1690602001909291905050506109d6565b604051808215151515815260200191505060405180910390f35b610415600480360360208110156103e957600080fd5b81019080803573ffffffffffffffffffffffffffffffffffffffff169060200190929190505050610b48565b604051808215151515815260200191505060405180910390f35b61045b6004803603602081101561044557600080fd5b8101908080359060200190929190505050610bcf565b6040518088815260200187815260200186815260200185815260200184815260200183815260200182815260200197505050505050505060405180910390f35b6104c7600480360360208110156104b157600080fd5b8101908080359060200190929190505050610c1e565b005b6104f5600480360360208110156104df57600080fd5b8101908080359060200190929190505050610c83565b6040518082815260200191505060405180910390f35b610513610ca3565b005b61051d610dbb565b6040518082815260200191505060405180910390f35b6105756004803603602081101561054957600080fd5b81019080803573ffffffffffffffffffffffffffffffffffffffff169060200190929190505050610dc5565b604051808215151515815260200191505060405180910390f35b610597610f35565b604051808273ffffffffffffffffffffffffffffffffffffffff1673ffffffffffffffffffffffffffffffffffffffff16815260200191505060405180910390f35b61061b600480360360208110156105ef57600080fd5b81019080803573ffffffffffffffffffffffffffffffffffffffff169060200190929190505050610f5a565b604051808215151515815260200191505060405180910390f35b61063d610f7a565b604051808215151515815260200191505060405180910390f35b61068d6004803603604081101561066d57600080fd5b810190808035906020019092919080359060200190929190505050610f89565b005b610745600480360360208110156106a557600080fd5b81019080803590602001906401000000008111156106c257600080fd5b8201836020820111156106d457600080fd5b803590602001918460208302840111640100000000831117156106f657600080fd5b919080806020026020016040519081016040528093929190818152602001838360200280828437600081840152601f19601f820116905080830192505050505050509192919290505050611009565b604051808215151515815260200191505060405180910390f35b6107a16004803603602081101561077557600080fd5b81019080803573ffffffffffffffffffffffffffffffffffffffff1690602001909291905050506110ac565b005b600160003373ffffffffffffffffffffffffffffffffffffffff1673ffffffffffffffffffffffffffffffffffffffff16815260200190815260200160002060009054906101000a900460ff166107f957600080fd5b6000801b60026000848152602001908152602001600020600001541461081e57600080fd5b604051806020016040528082815250600260008481526020019081526020016000206000820151816000015590505080827f415629c7680cfd093ccc93831c55a06e0e60f4fbbc9479975d3ba612f17eff2960405160405180910390a35050565b600061088b8383610893565b905092915050565b600081600260008581526020019081526020016000206000015414905092915050565b60006108c182610c83565b9050919050565b60008060009054906101000a900473ffffffffffffffffffffffffffffffffffffffff1673ffffffffffffffffffffffffffffffffffffffff163373ffffffffffffffffffffffffffffffffffffffff161461092357600080fd5b61092c82610dc5565b9050919050565b60008060009054906101000a900473ffffffffffffffffffffffffffffffffffffffff1673ffffffffffffffffffffffffffffffffffffffff163373ffffffffffffffffffffffffffffffffffffffff161461098e57600080fd5b60008090505b82518110156109d0576109b98382815181106109ac57fe5b60200260200101516109d6565b156109c357600191505b8080600101915050610994565b50919050565b60008060009054906101000a900473ffffffffffffffffffffffffffffffffffffffff1673ffffffffffffffffffffffffffffffffffffffff163373ffffffffffffffffffffffffffffffffffffffff1614610a3157600080fd5b600160008373ffffffffffffffffffffffffffffffffffffffff1673ffffffffffffffffffffffffffffffffffffffff16815260200190815260200160002060009054906101000a900460ff1615610b43576000600160008473ffffffffffffffffffffffffffffffffffffffff1673ffffffffffffffffffffffffffffffffffffffff16815260200190815260200160002060006101000a81548160ff0219169083151502179055507ff1abf01a1043b7c244d128e8595cf0c1d10743b022b03a02dffd8ca3bf729f5a82604051808273ffffffffffffffffffffffffffffffffffffffff1673ffffffffffffffffffffffffffffffffffffffff16815260200191505060405180910390a1600190505b919050565b60008060009054906101000a900473ffffffffffffffffffffffffffffffffffffffff1673ffffffffffffffffffffffffffffffffffffffff163373ffffffffffffffffffffffffffffffffffffffff1614610ba357600080fd5b60006003541480610bb657506003544211155b610bbf57600080fd5b610bc8826108c8565b9050919050565b60048181548110610bdc57fe5b90600052602060002090600702016000915090508060000154908060010154908060020154908060030154908060040154908060050154908060060154905087565b6000809054906101000a900473ffffffffffffffffffffffffffffffffffffffff1673ffffffffffffffffffffffffffffffffffffffff163373ffffffffffffffffffffffffffffffffffffffff1614610c7757600080fd5b610c8081611249565b50565b600060026000838152602001908152602001600020600001549050919050565b6000809054906101000a900473ffffffffffffffffffffffffffffffffffffffff1673ffffffffffffffffffffffffffffffffffffffff163373ffffffffffffffffffffffffffffffffffffffff1614610cfc57600080fd5b600073ffffffffffffffffffffffffffffffffffffffff166000809054906101000a900473ffffffffffffffffffffffffffffffffffffffff1673ffffffffffffffffffffffffffffffffffffffff167f8be0079c531659141344cd1fd0a4f28419497f9722a3daafe3b4186f6b6457e060405160405180910390a360008060006101000a81548173ffffffffffffffffffffffffffffffffffffffff021916908373ffffffffffffffffffffffffffffffffffffffff160217905550565b6000600354905090565b60008060009054906101000a900473ffffffffffffffffffffffffffffffffffffffff1673ffffffffffffffffffffffffffffffffffffffff163373ffffffffffffffffffffffffffffffffffffffff1614610e2057600080fd5b600160008373ffffffffffffffffffffffffffffffffffffffff1673ffffffffffffffffffffffffffffffffffffffff16815260200190815260200160002060009054906101000a900460ff16610f305760018060008473ffffffffffffffffffffffffffffffffffffffff1673ffffffffffffffffffffffffffffffffffffffff16815260200190815260200160002060006101000a81548160ff0219169083151502179055507fd1bba68c128cc3f427e5831b3c6f99f480b6efa6b9e80c757768f6124158cc3f82604051808273ffffffffffffffffffffffffffffffffffffffff1673ffffffffffffffffffffffffffffffffffffffff16815260200191505060405180910390a1600190505b919050565b6000809054906101000a900473ffffffffffffffffffffffffffffffffffffffff1681565b60016020528060005260406000206000915054906101000a900460ff1681565b6000610f846112db565b905090565b600160003373ffffffffffffffffffffffffffffffffffffffff1673ffffffffffffffffffffffffffffffffffffffff16815260200190815260200160002060009054906101000a900460ff16610fdf57600080fd5b60006003541480610ff257506003544211155b610ffb57600080fd5b61100582826107a3565b5050565b60008060009054906101000a900473ffffffffffffffffffffffffffffffffffffffff1673ffffffffffffffffffffffffffffffffffffffff163373ffffffffffffffffffffffffffffffffffffffff161461106457600080fd5b60008090505b82518110156110a65761108f83828151811061108257fe5b6020026020010151610dc5565b1561109957600191505b808060010191505061106a565b50919050565b6000809054906101000a900473ffffffffffffffffffffffffffffffffffffffff1673ffffffffffffffffffffffffffffffffffffffff163373ffffffffffffffffffffffffffffffffffffffff161461110557600080fd5b600073ffffffffffffffffffffffffffffffffffffffff168173ffffffffffffffffffffffffffffffffffffffff16141561118b576040517f08c379a00000000000000000000000000000000000000000000000000000000081526004018080602001828103825260268152602001806112e86026913960400191505060405180910390fd5b8073ffffffffffffffffffffffffffffffffffffffff166000809054906101000a900473ffffffffffffffffffffffffffffffffffffffff1673ffffffffffffffffffffffffffffffffffffffff167f8be0079c531659141344cd1fd0a4f28419497f9722a3daafe3b4186f6b6457e060405160405180910390a3806000806101000a81548173ffffffffffffffffffffffffffffffffffffffff021916908373ffffffffffffffffffffffffffffffffffffffff16021790555050565b6000809054906101000a900473ffffffffffffffffffffffffffffffffffffffff1673ffffffffffffffffffffffffffffffffffffffff163373ffffffffffffffffffffffffffffffffffffffff16146112a257600080fd5b806003819055506003547fecee2595f95363c1d47f5700858ce0ccf90393eb052f7b64f8010c223d53cb1460405160405180910390a250565b6000600354421190509056fe4f776e61626c653a206e6577206f776e657220697320746865207a65726f2061646472657373a265627a7a72315820517d7b80509790f2735ee6a7bed8568993de6df7f3c1ce65e406a9e7c47d3a0f64736f6c63430005100032",
  "source": "pragma solidity >= 0.5.0 < 0.7.0;\n\nimport \"./Sealable.sol\";\nimport \"./Lockable.sol\";\n\ncontract OriginTransportTickets is Sealable, Lockable {\n    struct SimpleTicket {\n        // Unique autoincremented ID\n        uint256 id;\n        bytes32 ownerName;\n        bytes32 from;\n        bytes32 to;\n        uint256 price;\n        uint256 timeDeparture;\n        uint256 timeArrival;\n    }\n\n    // The list of transport tickets\n    SimpleTicket[] public transport_tickets;\n\n\n    constructor() Lockable(0) public {\n        addAddressToWhitelist(msg.sender);\n    }\n\n    function grantAuthority(address grantee) onlyOwner onlyUnlock public returns (bool success) {\n        return super.registerDelegate(grantee);\n    }\n\n    function getTicketHash(bytes32 id) public view returns (bytes32) {\n        return super.getSeal(id);\n    }\n\n    function deliverTicket(bytes32 id, bytes32 ticketHash) public onlyWhitelisted onlyUnlock {\n        return super.recordSeal(id, ticketHash);\n    }\n\n    function isValid(bytes32 id, bytes32 ticketHash) public view returns (bool) {\n        return super.verifySeal(id, ticketHash);\n    }\n\n    function setDateLimit(uint256 newDateLimit) public onlyOwner {\n        return super.setDateLimit(newDateLimit);\n    }\n\n    function isLocked() public view returns (bool) {\n        return super.isLocked();\n    }\n}\n",
  "sourcePath": "/Users/hurley/CrowdTaskManagementFrontend/SocialProof/solidity/contracts/OriginTransportTickets.sol",
  "compiler": {
    "name": "solc",
    "version": "0.5.16+commit.9c3226ce.Emscripten.clang"
  },
  "schemaVersion": "3.1.0",
  "updatedAt": "2020-05-20T23:22:17.932Z",
  "devdoc": {
    "methods": {
      "addAddressToWhitelist(address)": {
        "details": "add an address to the whitelist",
        "params": {
          "addr": "address"
        },
        "return": "true if the address was added to the whitelist, false if the address was already in the whitelist"
      },
      "addAddressesToWhitelist(address[])": {
        "details": "add addresses to the whitelist",
        "params": {
          "addrs": "addresses"
        },
        "return": "true if at least one address was added to the whitelist, false if all addresses were already in the whitelist"
      },
      "getDateLimit()": {
        "details": "return current date limit.",
        "return": "date limit"
      },
      "getSeal(bytes32)": {
        "params": {
          "id": "of the seal"
        },
        "return": "the seal"
      },
      "recordSeal(bytes32,bytes32)": {
        "details": "Record a new seal in the registry."
      },
      "registerDelegate(address)": {
        "details": "Register a new delegate authorized to add seal"
      },
      "removeAddressFromWhitelist(address)": {
        "details": "remove an address from the whitelist",
        "params": {
          "addr": "address"
        },
        "return": "true if the address was removed from the whitelist, false if the address wasn't in the whitelist in the first place"
      },
      "removeAddressesFromWhitelist(address[])": {
        "details": "remove addresses from the whitelist",
        "params": {
          "addrs": "addresses"
        },
        "return": "true if at least one address was removed from the whitelist, false if all addresses weren't in the whitelist in the first place"
      },
      "renounceOwnership()": {
        "details": "Leaves the contract without owner. It will not be possible to call `onlyOwner` functions anymore. Can only be called by the current owner.     * NOTE: Renouncing ownership will leave the contract without an owner, thereby removing any functionality that is only available to the owner."
      },
      "transferOwnership(address)": {
        "details": "Transfers ownership of the contract to a new account (`newOwner`). Can only be called by the current owner."
      },
      "verifySeal(bytes32,bytes32)": {
        "params": {
          "id": "of the seal",
          "sealValue": "value"
        }
      }
    }
  },
  "userdoc": {
    "methods": {
      "getSeal(bytes32)": {
        "notice": "Use this getter function to access the seal value"
      },
      "verifySeal(bytes32,bytes32)": {
        "notice": "Use this method to verify a seal validity"
      }
    }
  }
}