{
  "contractName": "TransportTickets",
  "abi": [
    {
      "inputs": [],
      "payable": false,
      "stateMutability": "nonpayable",
      "type": "constructor"
    },
    {
      "anonymous": false,
      "inputs": [
        {
          "indexed": false,
          "internalType": "uint256",
          "name": "id",
          "type": "uint256"
        },
        {
          "indexed": false,
          "internalType": "string",
          "name": "name",
          "type": "string"
        },
        {
          "indexed": false,
          "internalType": "string",
          "name": "vicinty",
          "type": "string"
        }
      ],
      "name": "logInterestPoint",
      "type": "event"
    },
    {
      "anonymous": false,
      "inputs": [
        {
          "indexed": false,
          "internalType": "uint256",
          "name": "id",
          "type": "uint256"
        },
        {
          "indexed": false,
          "internalType": "string",
          "name": "ownerName",
          "type": "string"
        },
        {
          "indexed": false,
          "internalType": "address",
          "name": "owner",
          "type": "address"
        },
        {
          "indexed": false,
          "internalType": "string",
          "name": "from",
          "type": "string"
        },
        {
          "indexed": false,
          "internalType": "string",
          "name": "to",
          "type": "string"
        },
        {
          "indexed": false,
          "internalType": "uint256",
          "name": "price",
          "type": "uint256"
        },
        {
          "indexed": false,
          "internalType": "uint256",
          "name": "timeDeparture",
          "type": "uint256"
        },
        {
          "indexed": false,
          "internalType": "uint256",
          "name": "timeArrival",
          "type": "uint256"
        }
      ],
      "name": "logTicket",
      "type": "event"
    },
    {
      "constant": true,
      "inputs": [
        {
          "internalType": "uint256",
          "name": "",
          "type": "uint256"
        }
      ],
      "name": "nums",
      "outputs": [
        {
          "internalType": "uint256",
          "name": "id",
          "type": "uint256"
        },
        {
          "internalType": "string",
          "name": "from",
          "type": "string"
        },
        {
          "internalType": "string",
          "name": "to",
          "type": "string"
        },
        {
          "internalType": "uint256",
          "name": "price",
          "type": "uint256"
        },
        {
          "internalType": "uint256",
          "name": "timeDeparture",
          "type": "uint256"
        },
        {
          "internalType": "uint256",
          "name": "timeArrival",
          "type": "uint256"
        }
      ],
      "payable": false,
      "stateMutability": "view",
      "type": "function"
    },
    {
      "constant": false,
      "inputs": [],
      "name": "withdraw",
      "outputs": [],
      "payable": false,
      "stateMutability": "nonpayable",
      "type": "function"
    },
    {
      "constant": false,
      "inputs": [
        {
          "internalType": "uint256",
          "name": "id",
          "type": "uint256"
        },
        {
          "internalType": "string",
          "name": "from",
          "type": "string"
        },
        {
          "internalType": "string",
          "name": "to",
          "type": "string"
        },
        {
          "internalType": "uint256",
          "name": "price",
          "type": "uint256"
        },
        {
          "internalType": "uint256",
          "name": "timeDeparture",
          "type": "uint256"
        },
        {
          "internalType": "uint256",
          "name": "timeArrival",
          "type": "uint256"
        }
      ],
      "name": "addTransportNumber",
      "outputs": [],
      "payable": false,
      "stateMutability": "nonpayable",
      "type": "function"
    },
    {
      "constant": false,
      "inputs": [
        {
          "internalType": "uint256",
          "name": "id",
          "type": "uint256"
        }
      ],
      "name": "deleteTransportNumber",
      "outputs": [],
      "payable": false,
      "stateMutability": "nonpayable",
      "type": "function"
    },
    {
      "constant": true,
      "inputs": [
        {
          "internalType": "address",
          "name": "owner",
          "type": "address"
        },
        {
          "internalType": "string",
          "name": "from",
          "type": "string"
        },
        {
          "internalType": "string",
          "name": "to",
          "type": "string"
        },
        {
          "internalType": "uint256",
          "name": "timeDeparture",
          "type": "uint256"
        }
      ],
      "name": "getTicketHash",
      "outputs": [
        {
          "internalType": "bytes32",
          "name": "hash",
          "type": "bytes32"
        }
      ],
      "payable": false,
      "stateMutability": "pure",
      "type": "function"
    },
    {
      "constant": false,
      "inputs": [
        {
          "internalType": "uint256",
          "name": "numId",
          "type": "uint256"
        },
        {
          "internalType": "string",
          "name": "ownerName",
          "type": "string"
        }
      ],
      "name": "buyTicket",
      "outputs": [],
      "payable": true,
      "stateMutability": "payable",
      "type": "function"
    },
    {
      "constant": false,
      "inputs": [
        {
          "internalType": "bytes32",
          "name": "hash",
          "type": "bytes32"
        }
      ],
      "name": "checkTicket",
      "outputs": [
        {
          "internalType": "bool",
          "name": "",
          "type": "bool"
        }
      ],
      "payable": false,
      "stateMutability": "nonpayable",
      "type": "function"
    },
    {
      "constant": false,
      "inputs": [
        {
          "internalType": "uint256",
          "name": "id",
          "type": "uint256"
        }
      ],
      "name": "deleteTicket",
      "outputs": [],
      "payable": false,
      "stateMutability": "nonpayable",
      "type": "function"
    },
    {
      "constant": false,
      "inputs": [
        {
          "internalType": "uint256",
          "name": "id",
          "type": "uint256"
        },
        {
          "internalType": "string",
          "name": "name",
          "type": "string"
        },
        {
          "internalType": "string",
          "name": "vicinty",
          "type": "string"
        }
      ],
      "name": "addInterestPoint",
      "outputs": [],
      "payable": false,
      "stateMutability": "nonpayable",
      "type": "function"
    },
    {
      "constant": false,
      "inputs": [
        {
          "internalType": "uint256",
          "name": "id",
          "type": "uint256"
        }
      ],
      "name": "queryInterestPoint",
      "outputs": [],
      "payable": false,
      "stateMutability": "nonpayable",
      "type": "function"
    },
    {
      "constant": false,
      "inputs": [
        {
          "internalType": "uint256",
          "name": "id",
          "type": "uint256"
        }
      ],
      "name": "deleteInterestPoint",
      "outputs": [],
      "payable": false,
      "stateMutability": "nonpayable",
      "type": "function"
    }
  ],
  "bytecode": "0x60806040526000805534801561001457600080fd5b5033600560006101000a81548173ffffffffffffffffffffffffffffffffffffffff021916908373ffffffffffffffffffffffffffffffffffffffff1602179055506120ac806100656000396000f3fe60806040526004361061009c5760003560e01c8063aebe680011610064578063aebe68001461022e578063ba91f71714610397578063d5e3ed81146103ea578063e6cc084914610425578063f1ab18fb146105ac578063fd1ee54c146107495761009c565b80630804d054146100a15780633ccfd60b146100dc5780635a93fb2d146100f35780638ed82cbf1461012e5780639afb93cb14610169575b600080fd5b3480156100ad57600080fd5b506100da600480360360208110156100c457600080fd5b8101908080359060200190929190505050610885565b005b3480156100e857600080fd5b506100f1610a57565b005b3480156100ff57600080fd5b5061012c6004803603602081101561011657600080fd5b8101908080359060200190929190505050610b1c565b005b34801561013a57600080fd5b506101676004803603602081101561015157600080fd5b8101908080359060200190929190505050610eb5565b005b61022c6004803603604081101561017f57600080fd5b8101908080359060200190929190803590602001906401000000008111156101a657600080fd5b8201836020820111156101b857600080fd5b803590602001918460018302840111640100000000831117156101da57600080fd5b91908080601f016020809104026020016040519081016040528093929190818152602001838380828437600081840152601f19601f820116905080830192505050505050509192919290505050610f50565b005b34801561023a57600080fd5b506103956004803603606081101561025157600080fd5b81019080803590602001909291908035906020019064010000000081111561027857600080fd5b82018360208201111561028a57600080fd5b803590602001918460018302840111640100000000831117156102ac57600080fd5b91908080601f016020809104026020016040519081016040528093929190818152602001838380828437600081840152601f19601f8201169050808301925050505050505091929192908035906020019064010000000081111561030f57600080fd5b82018360208201111561032157600080fd5b8035906020019184600183028401116401000000008311171561034357600080fd5b91908080601f016020809104026020016040519081016040528093929190818152602001838380828437600081840152601f19601f8201169050808301925050505050505091929192905050506111eb565b005b3480156103a357600080fd5b506103d0600480360360208110156103ba57600080fd5b81019080803590602001909291905050506112bf565b604051808215151515815260200191505060405180910390f35b3480156103f657600080fd5b506104236004803603602081101561040d57600080fd5b8101908080359060200190929190505050611663565b005b34801561043157600080fd5b506105aa600480360360c081101561044857600080fd5b81019080803590602001909291908035906020019064010000000081111561046f57600080fd5b82018360208201111561048157600080fd5b803590602001918460018302840111640100000000831117156104a357600080fd5b91908080601f016020809104026020016040519081016040528093929190818152602001838380828437600081840152601f19601f8201169050808301925050505050505091929192908035906020019064010000000081111561050657600080fd5b82018360208201111561051857600080fd5b8035906020019184600183028401116401000000008311171561053a57600080fd5b91908080601f016020809104026020016040519081016040528093929190818152602001838380828437600081840152601f19601f820116905080830192505050505050509192919290803590602001909291908035906020019092919080359060200190929190505050611716565b005b3480156105b857600080fd5b50610733600480360360808110156105cf57600080fd5b81019080803573ffffffffffffffffffffffffffffffffffffffff1690602001909291908035906020019064010000000081111561060c57600080fd5b82018360208201111561061e57600080fd5b8035906020019184600183028401116401000000008311171561064057600080fd5b91908080601f016020809104026020016040519081016040528093929190818152602001838380828437600081840152601f19601f820116905080830192505050505050509192919290803590602001906401000000008111156106a357600080fd5b8201836020820111156106b557600080fd5b803590602001918460018302840111640100000000831117156106d757600080fd5b91908080601f016020809104026020016040519081016040528093929190818152602001838380828437600081840152601f19601f8201169050808301925050505050505091929192908035906020019092919050505061181d565b6040518082815260200191505060405180910390f35b34801561075557600080fd5b506107826004803603602081101561076c57600080fd5b8101908080359060200190929190505050611a56565b604051808781526020018060200180602001868152602001858152602001848152602001838103835288818151815260200191508051906020019080838360005b838110156107de5780820151818401526020810190506107c3565b50505050905090810190601f16801561080b5780820380516001836020036101000a031916815260200191505b50838103825287818151815260200191508051906020019080838360005b83811015610844578082015181840152602081019050610829565b50505050905090810190601f1680156108715780820380516001836020036101000a031916815260200191505b509850505050505050505060405180910390f35b600560009054906101000a900473ffffffffffffffffffffffffffffffffffffffff1673ffffffffffffffffffffffffffffffffffffffff163373ffffffffffffffffffffffffffffffffffffffff16146108df57600080fd5b7f75dde983607316662438ced0c6127cc4aad94aaa14ad6e1bc683d3f9ea4fc8068160046000848152602001908152602001600020600101600460008581526020019081526020016000206002016040518084815260200180602001806020018381038352858181546001816001161561010002031660029004815260200191508054600181600116156101000203166002900480156109c05780601f10610995576101008083540402835291602001916109c0565b820191906000526020600020905b8154815290600101906020018083116109a357829003601f168201915b5050838103825284818154600181600116156101000203166002900481526020019150805460018160011615610100020316600290048015610a435780601f10610a1857610100808354040283529160200191610a43565b820191906000526020600020905b815481529060010190602001808311610a2657829003601f168201915b50509550505050505060405180910390a150565b600560009054906101000a900473ffffffffffffffffffffffffffffffffffffffff1673ffffffffffffffffffffffffffffffffffffffff163373ffffffffffffffffffffffffffffffffffffffff1614610ab157600080fd5b600560009054906101000a900473ffffffffffffffffffffffffffffffffffffffff1673ffffffffffffffffffffffffffffffffffffffff166108fc479081150290604051600060405180830381858888f19350505050158015610b19573d6000803e3d6000fd5b50565b600560009054906101000a900473ffffffffffffffffffffffffffffffffffffffff1673ffffffffffffffffffffffffffffffffffffffff163373ffffffffffffffffffffffffffffffffffffffff1614610b7657600080fd5b610b7e611f4c565b600160008381526020019081526020016000206040518060800160405290816000820154815260200160018201548152602001600282018054600181600116156101000203166002900480601f016020809104026020016040519081016040528092919081815260200182805460018160011615610100020316600290048015610c495780601f10610c1e57610100808354040283529160200191610c49565b820191906000526020600020905b815481529060010190602001808311610c2c57829003601f168201915b505050505081526020016003820160009054906101000a900473ffffffffffffffffffffffffffffffffffffffff1673ffffffffffffffffffffffffffffffffffffffff1673ffffffffffffffffffffffffffffffffffffffff168152505090506000610e3a826060015160036000856020015181526020019081526020016000206001018054600181600116156101000203166002900480601f016020809104026020016040519081016040528092919081815260200182805460018160011615610100020316600290048015610d625780601f10610d3757610100808354040283529160200191610d62565b820191906000526020600020905b815481529060010190602001808311610d4557829003601f168201915b505050505060036000866020015181526020019081526020016000206002018054600181600116156101000203166002900480601f016020809104026020016040519081016040528092919081815260200182805460018160011615610100020316600290048015610e155780601f10610dea57610100808354040283529160200191610e15565b820191906000526020600020905b815481529060010190602001808311610df857829003601f168201915b505050505060036000876020015181526020019081526020016000206004015461181d565b90506002600082815260200190815260200160002060009055600160008481526020019081526020016000206000808201600090556001820160009055600282016000610e879190611f8a565b6003820160006101000a81549073ffffffffffffffffffffffffffffffffffffffff02191690555050505050565b600560009054906101000a900473ffffffffffffffffffffffffffffffffffffffff1673ffffffffffffffffffffffffffffffffffffffff163373ffffffffffffffffffffffffffffffffffffffff1614610f0f57600080fd5b60046000828152602001908152602001600020600080820160009055600182016000610f3b9190611f8a565b600282016000610f4b9190611f8a565b505050565b60036000838152602001908152602001600020600301543414610f7257600080fd5b60016000808282540192505081905550604051806080016040528060005481526020018381526020018281526020013373ffffffffffffffffffffffffffffffffffffffff16815250600160008054815260200190815260200160002060008201518160000155602082015181600101556040820151816002019080519060200190610fff929190611fd2565b5060608201518160030160006101000a81548173ffffffffffffffffffffffffffffffffffffffff021916908373ffffffffffffffffffffffffffffffffffffffff16021790555090505060006111ca33600360008681526020019081526020016000206001018054600181600116156101000203166002900480601f0160208091040260200160405190810160405280929190818152602001828054600181600116156101000203166002900480156110fa5780601f106110cf576101008083540402835291602001916110fa565b820191906000526020600020905b8154815290600101906020018083116110dd57829003601f168201915b5050505050600360008781526020019081526020016000206002018054600181600116156101000203166002900480601f0160208091040260200160405190810160405280929190818152602001828054600181600116156101000203166002900480156111a95780601f1061117e576101008083540402835291602001916111a9565b820191906000526020600020905b81548152906001019060200180831161118c57829003601f168201915b5050505050600360008881526020019081526020016000206004015461181d565b90506000546002600083815260200190815260200160002081905550505050565b600560009054906101000a900473ffffffffffffffffffffffffffffffffffffffff1673ffffffffffffffffffffffffffffffffffffffff163373ffffffffffffffffffffffffffffffffffffffff161461124557600080fd5b60405180606001604052808481526020018381526020018281525060046000858152602001908152602001600020600082015181600001556020820151816001019080519060200190611299929190611fd2565b5060408201518160020190805190602001906112b6929190611fd2565b50905050505050565b6000600560009054906101000a900473ffffffffffffffffffffffffffffffffffffffff1673ffffffffffffffffffffffffffffffffffffffff163373ffffffffffffffffffffffffffffffffffffffff161461131b57600080fd5b6000809050600060026000858152602001908152602001600020549050600081111561165957600060016000838152602001908152602001600020600101549050426003600083815260200190815260200160002060040154111561165757600192507fc2c43c1a7cf02e80dde9c6b7076d0234c7766def3d4ccd6268f57b118dbd68d682600160008581526020019081526020016000206002016001600086815260200190815260200160002060030160009054906101000a900473ffffffffffffffffffffffffffffffffffffffff16600360008681526020019081526020016000206001016003600087815260200190815260200160002060020160036000888152602001908152602001600020600301546003600089815260200190815260200160002060040154600360008a81526020019081526020016000206005015460405180898152602001806020018873ffffffffffffffffffffffffffffffffffffffff1673ffffffffffffffffffffffffffffffffffffffff168152602001806020018060200187815260200186815260200185815260200184810384528b8181546001816001161561010002031660029004815260200191508054600181600116156101000203166002900480156115395780601f1061150e57610100808354040283529160200191611539565b820191906000526020600020905b81548152906001019060200180831161151c57829003601f168201915b50508481038352898181546001816001161561010002031660029004815260200191508054600181600116156101000203166002900480156115bc5780601f10611591576101008083540402835291602001916115bc565b820191906000526020600020905b81548152906001019060200180831161159f57829003601f168201915b505084810382528881815460018160011615610100020316600290048152602001915080546001816001161561010002031660029004801561163f5780601f106116145761010080835404028352916020019161163f565b820191906000526020600020905b81548152906001019060200180831161162257829003601f168201915b50509b50505050505050505050505060405180910390a15b505b8192505050919050565b600560009054906101000a900473ffffffffffffffffffffffffffffffffffffffff1673ffffffffffffffffffffffffffffffffffffffff163373ffffffffffffffffffffffffffffffffffffffff16146116bd57600080fd5b600360008281526020019081526020016000206000808201600090556001820160006116e99190611f8a565b6002820160006116f99190611f8a565b600382016000905560048201600090556005820160009055505050565b600560009054906101000a900473ffffffffffffffffffffffffffffffffffffffff1673ffffffffffffffffffffffffffffffffffffffff163373ffffffffffffffffffffffffffffffffffffffff161461177057600080fd5b6040518060c0016040528087815260200186815260200185815260200184815260200183815260200182815250600360008881526020019081526020016000206000820151816000015560208201518160010190805190602001906117d6929190611fd2565b5060408201518160020190805190602001906117f3929190611fd2565b50606082015181600301556080820151816004015560a08201518160050155905050505050505050565b600060606118408673ffffffffffffffffffffffffffffffffffffffff16611bc2565b858561184b86611bee565b6040516020018085805190602001908083835b60208310611881578051825260208201915060208101905060208303925061185e565b6001836020036101000a03801982511681845116808217855250505050505090500184805190602001908083835b602083106118d257805182526020820191506020810190506020830392506118af565b6001836020036101000a03801982511681845116808217855250505050505090500183805190602001908083835b602083106119235780518252602082019150602081019050602083039250611900565b6001836020036101000a03801982511681845116808217855250505050505090500182805190602001908083835b602083106119745780518252602082019150602081019050602083039250611951565b6001836020036101000a03801982511681845116808217855250505050505090500194505050505060405160208183030381529060405290506002816040518082805190602001908083835b602083106119e357805182526020820191506020810190506020830392506119c0565b6001836020036101000a038019825116818451168082178552505050505050905001915050602060405180830381855afa158015611a25573d6000803e3d6000fd5b5050506040513d6020811015611a3a57600080fd5b8101908080519060200190929190505050915050949350505050565b6003602052806000526040600020600091509050806000015490806001018054600181600116156101000203166002900480601f016020809104026020016040519081016040528092919081815260200182805460018160011615610100020316600290048015611b085780601f10611add57610100808354040283529160200191611b08565b820191906000526020600020905b815481529060010190602001808311611aeb57829003601f168201915b505050505090806002018054600181600116156101000203166002900480601f016020809104026020016040519081016040528092919081815260200182805460018160011615610100020316600290048015611ba65780601f10611b7b57610100808354040283529160200191611ba6565b820191906000526020600020905b815481529060010190602001808311611b8957829003601f168201915b5050505050908060030154908060040154908060050154905086565b606060008260601b6bffffffffffffffffffffffff19169050611be6816014611d1b565b915050919050565b60606000821415611c36576040518060400160405280600181526020017f30000000000000000000000000000000000000000000000000000000000000008152509050611d16565b600082905060005b60008214611c60578080600101915050600a8281611c5857fe5b049150611c3e565b6060816040519080825280601f01601f191660200182016040528015611c955781602001600182028038833980820191505090505b50905060006001830390505b60008614611d0e57600a8681611cb357fe5b0660300160f81b82828060019003935081518110611ccd57fe5b60200101907effffffffffffffffffffffffffffffffffffffffffffffffffffffffffffff1916908160001a905350600a8681611d0657fe5b049550611ca1565b819450505050505b919050565b6060806040518060400160405280601081526020017f3031323334353637383961626364656600000000000000000000000000000000815250905060606002808502016040519080825280601f01601f191660200182016040528015611d905781602001600182028038833980820191505090505b5090507f300000000000000000000000000000000000000000000000000000000000000081600081518110611dc157fe5b60200101907effffffffffffffffffffffffffffffffffffffffffffffffffffffffffffff1916908160001a9053507f780000000000000000000000000000000000000000000000000000000000000081600181518110611e1e57fe5b60200101907effffffffffffffffffffffffffffffffffffffffffffffffffffffffffffff1916908160001a90535060008090505b84811015611f40576000868260208110611e6957fe5b1a60f81b60f81c90508360048260ff16901c60ff1681518110611e8857fe5b602001015160f81c60f81b836002840260020181518110611ea557fe5b60200101907effffffffffffffffffffffffffffffffffffffffffffffffffffffffffffff1916908160001a90535083600f821660ff1681518110611ee657fe5b602001015160f81c60f81b836002840260030181518110611f0357fe5b60200101907effffffffffffffffffffffffffffffffffffffffffffffffffffffffffffff1916908160001a905350508080600101915050611e53565b50809250505092915050565b6040518060800160405280600081526020016000815260200160608152602001600073ffffffffffffffffffffffffffffffffffffffff1681525090565b50805460018160011615610100020316600290046000825580601f10611fb05750611fcf565b601f016020900490600052602060002090810190611fce9190612052565b5b50565b828054600181600116156101000203166002900490600052602060002090601f016020900481019282601f1061201357805160ff1916838001178555612041565b82800160010185558215612041579182015b82811115612040578251825591602001919060010190612025565b5b50905061204e9190612052565b5090565b61207491905b80821115612070576000816000905550600101612058565b5090565b9056fea265627a7a72315820aa8626be9c50c9df0442111d79a2eae0f72f93cd1b03f7e68898bc7bfd7fa0b264736f6c63430005100032",
  "source": "pragma solidity >=0.4.22 <0.7.0;\r\nimport \"./StringUtils.sol\";\r\n// import \"github.com/Legend-Zhu/solidityutils/StringUtils.sol\";\r\n\r\ncontract TransportTickets {\r\n    using StringUtils for *;\r\n\r\n    struct Ticket {\r\n        uint256 id;\r\n        uint256 num;\r\n        string ownerName;\r\n        address owner;\r\n    }\r\n\r\n    struct TransportNumber {\r\n        uint256 id;\r\n        string from;\r\n        string to;\r\n        uint256 price;\r\n        uint256 timeDeparture;\r\n        uint256 timeArrival;\r\n    }\r\n\r\n    struct InterestPoint {\r\n        uint256 id;\r\n        string name;\r\n        string vicinty;\r\n    }\r\n\r\n    uint256 ticketIndex = 0;\r\n    mapping(uint256 => Ticket) tickets;\r\n    mapping(bytes32 => uint256) ticketIds;\r\n    mapping(uint256 => TransportNumber) public nums;\r\n    mapping(uint256 => InterestPoint) interestPoints;\r\n\r\n    address payable private creater;\r\n\r\n    event logTicket(uint256 id, string ownerName, address owner, string from, string to, uint256 price, uint256 timeDeparture, uint256 timeArrival);\r\n\r\n    constructor() public {\r\n        creater = msg.sender;\r\n    }\r\n\r\n    function withdraw() public {\r\n        require(msg.sender == creater);\r\n        creater.transfer(address(this).balance);\r\n    }\r\n\r\n    function addTransportNumber(uint256 id, string memory from, string memory to, uint256 price, uint256 timeDeparture, uint256 timeArrival) public {\r\n        require(msg.sender == creater);\r\n        nums[id] = TransportNumber(id, from, to, price, timeDeparture, timeArrival);\r\n    }\r\n\r\n    function deleteTransportNumber(uint256 id) public {\r\n        require(msg.sender == creater);\r\n        delete nums[id];\r\n    }\r\n\r\n    function getTicketHash(address owner, string memory from, string memory to, uint256 timeDeparture) public pure returns(bytes32 hash) {\r\n        bytes memory s = abi.encodePacked(owner.toString(), from, to, timeDeparture.toString());\r\n        return sha256(s);\r\n    }\r\n\r\n    function buyTicket(uint256 numId, string memory ownerName) payable public {\r\n        require(msg.value == nums[numId].price);\r\n        ticketIndex += 1;\r\n        tickets[ticketIndex] = Ticket(ticketIndex, numId, ownerName, msg.sender);\r\n        bytes32 hash = getTicketHash(msg.sender, nums[numId].from, nums[numId].to, nums[numId].timeDeparture);\r\n        ticketIds[hash] = ticketIndex;\r\n    }\r\n\r\n    function checkTicket(bytes32 hash) public returns(bool) {\r\n        require(msg.sender == creater);\r\n        bool result = false;\r\n        uint256 id = ticketIds[hash];\r\n        if(id > 0) {\r\n            uint256 num = tickets[id].num;\r\n            if(nums[num].timeDeparture > now) { //\r\n                result = true;\r\n                emit logTicket(id, tickets[id].ownerName, tickets[id].owner, nums[num].from, nums[num].to, nums[num].price, nums[num].timeDeparture, nums[num].timeArrival);\r\n            }\r\n        }\r\n        return result;\r\n    }\r\n\r\n    function deleteTicket(uint256 id) public {\r\n        require(msg.sender == creater);\r\n        Ticket memory ticket = tickets[id];\r\n        bytes32 hash = getTicketHash(ticket.owner, nums[ticket.num].from, nums[ticket.num].to, nums[ticket.num].timeDeparture);\r\n        delete ticketIds[hash];\r\n        delete tickets[id];\r\n    }\r\n\r\n    function addInterestPoint(uint256 id, string memory name, string memory vicinty) public {\r\n        require(msg.sender == creater);\r\n        interestPoints[id] = InterestPoint(id, name, vicinty);\r\n    }\r\n\r\n    event logInterestPoint(uint256 id, string name, string vicinty);\r\n\r\n    function queryInterestPoint(uint256 id) public {\r\n        require(msg.sender == creater);\r\n        emit logInterestPoint(id, interestPoints[id].name, interestPoints[id].vicinty);\r\n    }\r\n\r\n    function deleteInterestPoint(uint256 id) public {\r\n        require(msg.sender == creater);\r\n        delete interestPoints[id];\r\n    }\r\n}\r\n",
  "sourcePath": "/Users/hurley/CrowdTaskManagementFrontend/SocialProof/solidity/contracts/TransportTickets.sol",
  "compiler": {
    "name": "solc",
    "version": "0.5.16+commit.9c3226ce.Emscripten.clang"
  },
  "schemaVersion": "3.1.0",
  "updatedAt": "2020-05-21T14:31:10.060Z",
  "networkType": "ethereum",
  "devdoc": {
    "methods": {}
  },
  "userdoc": {
    "methods": {}
  }
}