{
  "contractName": "Verify",
  "abi": [
    {
      "inputs": [],
      "payable": false,
      "stateMutability": "nonpayable",
      "type": "constructor"
    },
    {
      "anonymous": false,
      "inputs": [
        {
          "indexed": false,
          "internalType": "uint256",
          "name": "id",
          "type": "uint256"
        },
        {
          "indexed": false,
          "internalType": "string",
          "name": "name",
          "type": "string"
        },
        {
          "indexed": false,
          "internalType": "string",
          "name": "vicinty",
          "type": "string"
        }
      ],
      "name": "logInterestPoint",
      "type": "event"
    },
    {
      "constant": false,
      "inputs": [
        {
          "internalType": "uint256",
          "name": "id",
          "type": "uint256"
        },
        {
          "internalType": "string",
          "name": "name",
          "type": "string"
        },
        {
          "internalType": "string",
          "name": "vicinty",
          "type": "string"
        }
      ],
      "name": "addInterestPoint",
      "outputs": [],
      "payable": false,
      "stateMutability": "nonpayable",
      "type": "function"
    },
    {
      "constant": true,
      "inputs": [
        {
          "internalType": "string",
          "name": "id",
          "type": "string"
        },
        {
          "internalType": "string",
          "name": "name",
          "type": "string"
        },
        {
          "internalType": "string",
          "name": "vicinty",
          "type": "string"
        }
      ],
      "name": "getInterestPointHash",
      "outputs": [
        {
          "internalType": "bytes32",
          "name": "hash",
          "type": "bytes32"
        }
      ],
      "payable": false,
      "stateMutability": "pure",
      "type": "function"
    },
    {
      "constant": true,
      "inputs": [
        {
          "internalType": "uint256",
          "name": "id",
          "type": "uint256"
        },
        {
          "internalType": "string",
          "name": "name",
          "type": "string"
        },
        {
          "internalType": "string",
          "name": "vicinty",
          "type": "string"
        }
      ],
      "name": "checkInterestPoint",
      "outputs": [
        {
          "internalType": "bool",
          "name": "",
          "type": "bool"
        }
      ],
      "payable": false,
      "stateMutability": "view",
      "type": "function"
    },
    {
      "constant": false,
      "inputs": [
        {
          "internalType": "uint256",
          "name": "id",
          "type": "uint256"
        }
      ],
      "name": "queryInterestPoint",
      "outputs": [],
      "payable": false,
      "stateMutability": "nonpayable",
      "type": "function"
    },
    {
      "constant": false,
      "inputs": [
        {
          "internalType": "uint256",
          "name": "id",
          "type": "uint256"
        }
      ],
      "name": "deleteInterestPoint",
      "outputs": [],
      "payable": false,
      "stateMutability": "nonpayable",
      "type": "function"
    }
  ],
  "bytecode": "0x608060405234801561001057600080fd5b5033600260006101000a81548173ffffffffffffffffffffffffffffffffffffffff021916908373ffffffffffffffffffffffffffffffffffffffff160217905550610dbe806100616000396000f3fe608060405234801561001057600080fd5b50600436106100575760003560e01c80630804d0541461005c5780638ed82cbf1461008a578063aebe6800146100b8578063ceb9b26614610214578063d9624b9814610388575b600080fd5b6100886004803603602081101561007257600080fd5b8101908080359060200190929190505050610585565b005b6100b6600480360360208110156100a057600080fd5b8101908080359060200190929190505050610755565b005b610212600480360360608110156100ce57600080fd5b8101908080359060200190929190803590602001906401000000008111156100f557600080fd5b82018360208201111561010757600080fd5b8035906020019184600183028401116401000000008311171561012957600080fd5b91908080601f016020809104026020016040519081016040528093929190818152602001838380828437600081840152601f19601f8201169050808301925050505050505091929192908035906020019064010000000081111561018c57600080fd5b82018360208201111561019e57600080fd5b803590602001918460018302840111640100000000831117156101c057600080fd5b91908080601f016020809104026020016040519081016040528093929190818152602001838380828437600081840152601f19601f8201169050808301925050505050505091929192905050506107ef565b005b61036e6004803603606081101561022a57600080fd5b81019080803590602001909291908035906020019064010000000081111561025157600080fd5b82018360208201111561026357600080fd5b8035906020019184600183028401116401000000008311171561028557600080fd5b91908080601f016020809104026020016040519081016040528093929190818152602001838380828437600081840152601f19601f820116905080830192505050505050509192919290803590602001906401000000008111156102e857600080fd5b8201836020820111156102fa57600080fd5b8035906020019184600183028401116401000000008311171561031c57600080fd5b91908080601f016020809104026020016040519081016040528093929190818152602001838380828437600081840152601f19601f8201169050808301925050505050505091929192905050506108c2565b604051808215151515815260200191505060405180910390f35b61056f6004803603606081101561039e57600080fd5b81019080803590602001906401000000008111156103bb57600080fd5b8201836020820111156103cd57600080fd5b803590602001918460018302840111640100000000831117156103ef57600080fd5b91908080601f016020809104026020016040519081016040528093929190818152602001838380828437600081840152601f19601f8201169050808301925050505050505091929192908035906020019064010000000081111561045257600080fd5b82018360208201111561046457600080fd5b8035906020019184600183028401116401000000008311171561048657600080fd5b91908080601f016020809104026020016040519081016040528093929190818152602001838380828437600081840152601f19601f820116905080830192505050505050509192919290803590602001906401000000008111156104e957600080fd5b8201836020820111156104fb57600080fd5b8035906020019184600183028401116401000000008311171561051d57600080fd5b91908080601f016020809104026020016040519081016040528093929190818152602001838380828437600081840152601f19601f820116905080830192505050505050509192919290505050610aaf565b6040518082815260200191505060405180910390f35b600260009054906101000a900473ffffffffffffffffffffffffffffffffffffffff1673ffffffffffffffffffffffffffffffffffffffff163373ffffffffffffffffffffffffffffffffffffffff16146105df57600080fd5b7f75dde983607316662438ced0c6127cc4aad94aaa14ad6e1bc683d3f9ea4fc806816000808481526020019081526020016000206001016000808581526020019081526020016000206002016040518084815260200180602001806020018381038352858181546001816001161561010002031660029004815260200191508054600181600116156101000203166002900480156106be5780601f10610693576101008083540402835291602001916106be565b820191906000526020600020905b8154815290600101906020018083116106a157829003601f168201915b50508381038252848181546001816001161561010002031660029004815260200191508054600181600116156101000203166002900480156107415780601f1061071657610100808354040283529160200191610741565b820191906000526020600020905b81548152906001019060200180831161072457829003601f168201915b50509550505050505060405180910390a150565b600260009054906101000a900473ffffffffffffffffffffffffffffffffffffffff1673ffffffffffffffffffffffffffffffffffffffff163373ffffffffffffffffffffffffffffffffffffffff16146107af57600080fd5b6000808281526020019081526020016000206000808201600090556001820160006107da9190610c9c565b6002820160006107ea9190610c9c565b505050565b600260009054906101000a900473ffffffffffffffffffffffffffffffffffffffff1673ffffffffffffffffffffffffffffffffffffffff163373ffffffffffffffffffffffffffffffffffffffff161461084957600080fd5b60405180606001604052808481526020018381526020018281525060008085815260200190815260200160002060008201518160000155602082015181600101908051906020019061089c929190610ce4565b5060408201518160020190805190602001906108b9929190610ce4565b50905050505050565b6000600260009054906101000a900473ffffffffffffffffffffffffffffffffffffffff1673ffffffffffffffffffffffffffffffffffffffff163373ffffffffffffffffffffffffffffffffffffffff161461091e57600080fd5b6109de836000808781526020019081526020016000206001018054600181600116156101000203166002900480601f0160208091040260200160405190810160405280929190818152602001828054600181600116156101000203166002900480156109cb5780601f106109a0576101008083540402835291602001916109cb565b820191906000526020600020905b8154815290600101906020018083116109ae57829003601f168201915b5050505050610c6e90919063ffffffff16565b8015610aa65750610aa5826000808781526020019081526020016000206002018054600181600116156101000203166002900480601f016020809104026020016040519081016040528092919081815260200182805460018160011615610100020316600290048015610a925780601f10610a6757610100808354040283529160200191610a92565b820191906000526020600020905b815481529060010190602001808311610a7557829003601f168201915b5050505050610c6e90919063ffffffff16565b5b90509392505050565b600060608484846040516020018084805190602001908083835b60208310610aec5780518252602082019150602081019050602083039250610ac9565b6001836020036101000a03801982511681845116808217855250505050505090500183805190602001908083835b60208310610b3d5780518252602082019150602081019050602083039250610b1a565b6001836020036101000a03801982511681845116808217855250505050505090500182805190602001908083835b60208310610b8e5780518252602082019150602081019050602083039250610b6b565b6001836020036101000a038019825116818451168082178552505050505050905001935050505060405160208183030381529060405290506002816040518082805190602001908083835b60208310610bfc5780518252602082019150602081019050602083039250610bd9565b6001836020036101000a038019825116818451168082178552505050505050905001915050602060405180830381855afa158015610c3e573d6000803e3d6000fd5b5050506040513d6020811015610c5357600080fd5b81019080805190602001909291905050509150509392505050565b60008151835114610c825760009050610c96565b818051906020012083805190602001201490505b92915050565b50805460018160011615610100020316600290046000825580601f10610cc25750610ce1565b601f016020900490600052602060002090810190610ce09190610d64565b5b50565b828054600181600116156101000203166002900490600052602060002090601f016020900481019282601f10610d2557805160ff1916838001178555610d53565b82800160010185558215610d53579182015b82811115610d52578251825591602001919060010190610d37565b5b509050610d609190610d64565b5090565b610d8691905b80821115610d82576000816000905550600101610d6a565b5090565b9056fea265627a7a72315820a7e23283007b127332a7e709bac55b6d27f9cdf06ba8d4ade699326984d79fb164736f6c63430005100032",
  "source": "pragma solidity >=0.4.22 <0.7.0;\nimport \"./StringUtils.sol\";\n\ncontract Verify {\n    using StringUtils for *;\n\n    struct TransportTicket {\n        uint256 id;\n        string ownerName;\n        string from;\n        string to;\n        uint256 price;\n        uint256 timeDeparture;\n        uint256 timeArrival;\n    }\n\n    struct InterestPoint {\n        uint256 id;\n        string name;\n        string vicinty;\n    }\n\n    mapping (uint256 => InterestPoint) interestPoints;\n    mapping (bytes32 => uint256) pointIds;\n\n    address payable private creater;\n\n    constructor() public {\n        creater = msg.sender;\n    }\n\n    event logInterestPoint(uint256 id, string name, string vicinty);\n\n    function addInterestPoint(uint256 id, string memory name, string memory vicinty) public {\n        require(msg.sender == creater);\n        interestPoints[id] = InterestPoint(id, name, vicinty);\n    }\n\n    function getInterestPointHash(string memory id, string memory name, string memory vicinty) public pure returns (bytes32 hash) {\n        bytes memory s = abi.encodePacked(id, name, vicinty);\n        return sha256(s);\n    }\n\n    function checkInterestPoint(uint256 id, string memory name, string memory vicinty) public view returns (bool) {\n        require(msg.sender == creater);\n        return interestPoints[id].name.equal(name) && interestPoints[id].vicinty.equal(vicinty);\n    }\n\n    function queryInterestPoint(uint256 id) public {\n        require(msg.sender == creater);\n        emit logInterestPoint(id, interestPoints[id].name, interestPoints[id].vicinty);\n    }\n\n    function deleteInterestPoint(uint256 id) public {\n        require(msg.sender == creater);\n        delete interestPoints[id];\n    }\n}",
  "sourcePath": "/Users/hurley/CrowdTaskManagementFrontend/SocialProof/solidity/contracts/Verify.sol",
  "compiler": {
    "name": "solc",
    "version": "0.5.16+commit.9c3226ce.Emscripten.clang"
  },
  "schemaVersion": "3.1.0",
  "updatedAt": "2020-05-21T14:31:10.073Z",
  "networkType": "ethereum",
  "devdoc": {
    "methods": {}
  },
  "userdoc": {
    "methods": {}
  }
}