{
  "contractName": "Whitelist",
  "abi": [
    {
      "anonymous": false,
      "inputs": [
        {
          "indexed": true,
          "internalType": "address",
          "name": "previousOwner",
          "type": "address"
        }
      ],
      "name": "OwnershipRenounced",
      "type": "event"
    },
    {
      "anonymous": false,
      "inputs": [
        {
          "indexed": true,
          "internalType": "address",
          "name": "previousOwner",
          "type": "address"
        },
        {
          "indexed": true,
          "internalType": "address",
          "name": "newOwner",
          "type": "address"
        }
      ],
      "name": "OwnershipTransferred",
      "type": "event"
    },
    {
      "anonymous": false,
      "inputs": [
        {
          "indexed": false,
          "internalType": "address",
          "name": "addr",
          "type": "address"
        }
      ],
      "name": "WhitelistedAddressAdded",
      "type": "event"
    },
    {
      "anonymous": false,
      "inputs": [
        {
          "indexed": false,
          "internalType": "address",
          "name": "addr",
          "type": "address"
        }
      ],
      "name": "WhitelistedAddressRemoved",
      "type": "event"
    },
    {
      "constant": true,
      "inputs": [],
      "name": "owner",
      "outputs": [
        {
          "internalType": "address",
          "name": "",
          "type": "address"
        }
      ],
      "payable": false,
      "stateMutability": "view",
      "type": "function"
    },
    {
      "constant": false,
      "inputs": [],
      "name": "renounceOwnership",
      "outputs": [],
      "payable": false,
      "stateMutability": "nonpayable",
      "type": "function"
    },
    {
      "constant": false,
      "inputs": [
        {
          "internalType": "address",
          "name": "newOwner",
          "type": "address"
        }
      ],
      "name": "transferOwnership",
      "outputs": [],
      "payable": false,
      "stateMutability": "nonpayable",
      "type": "function"
    },
    {
      "constant": true,
      "inputs": [
        {
          "internalType": "address",
          "name": "",
          "type": "address"
        }
      ],
      "name": "whitelist",
      "outputs": [
        {
          "internalType": "bool",
          "name": "",
          "type": "bool"
        }
      ],
      "payable": false,
      "stateMutability": "view",
      "type": "function"
    },
    {
      "constant": false,
      "inputs": [
        {
          "internalType": "address",
          "name": "addr",
          "type": "address"
        }
      ],
      "name": "addAddressToWhitelist",
      "outputs": [
        {
          "internalType": "bool",
          "name": "success",
          "type": "bool"
        }
      ],
      "payable": false,
      "stateMutability": "nonpayable",
      "type": "function"
    },
    {
      "constant": false,
      "inputs": [
        {
          "internalType": "address[]",
          "name": "addrs",
          "type": "address[]"
        }
      ],
      "name": "addAddressesToWhitelist",
      "outputs": [
        {
          "internalType": "bool",
          "name": "success",
          "type": "bool"
        }
      ],
      "payable": false,
      "stateMutability": "nonpayable",
      "type": "function"
    },
    {
      "constant": false,
      "inputs": [
        {
          "internalType": "address",
          "name": "addr",
          "type": "address"
        }
      ],
      "name": "removeAddressFromWhitelist",
      "outputs": [
        {
          "internalType": "bool",
          "name": "success",
          "type": "bool"
        }
      ],
      "payable": false,
      "stateMutability": "nonpayable",
      "type": "function"
    },
    {
      "constant": false,
      "inputs": [
        {
          "internalType": "address[]",
          "name": "addrs",
          "type": "address[]"
        }
      ],
      "name": "removeAddressesFromWhitelist",
      "outputs": [
        {
          "internalType": "bool",
          "name": "success",
          "type": "bool"
        }
      ],
      "payable": false,
      "stateMutability": "nonpayable",
      "type": "function"
    }
  ],
  "bytecode": "0x6080604052336000806101000a81548173ffffffffffffffffffffffffffffffffffffffff021916908373ffffffffffffffffffffffffffffffffffffffff160217905550610b56806100536000396000f3fe608060405234801561001057600080fd5b50600436106100885760003560e01c80638da5cb5b1161005b5780638da5cb5b1461021f5780639b19251a14610269578063e2ec6ec3146102c5578063f2fde38b1461039557610088565b806324953eaa1461008d578063286dd3f51461015d578063715018a6146101b95780637b9417c8146101c3575b600080fd5b610143600480360360208110156100a357600080fd5b81019080803590602001906401000000008111156100c057600080fd5b8201836020820111156100d257600080fd5b803590602001918460208302840111640100000000831117156100f457600080fd5b919080806020026020016040519081016040528093929190818152602001838360200280828437600081840152601f19601f8201169050808301925050505050505091929192905050506103d9565b604051808215151515815260200191505060405180910390f35b61019f6004803603602081101561017357600080fd5b81019080803573ffffffffffffffffffffffffffffffffffffffff16906020019092919050505061047c565b604051808215151515815260200191505060405180910390f35b6101c16105ee565b005b610205600480360360208110156101d957600080fd5b81019080803573ffffffffffffffffffffffffffffffffffffffff169060200190929190505050610706565b604051808215151515815260200191505060405180910390f35b610227610876565b604051808273ffffffffffffffffffffffffffffffffffffffff1673ffffffffffffffffffffffffffffffffffffffff16815260200191505060405180910390f35b6102ab6004803603602081101561027f57600080fd5b81019080803573ffffffffffffffffffffffffffffffffffffffff16906020019092919050505061089b565b604051808215151515815260200191505060405180910390f35b61037b600480360360208110156102db57600080fd5b81019080803590602001906401000000008111156102f857600080fd5b82018360208201111561030a57600080fd5b8035906020019184602083028401116401000000008311171561032c57600080fd5b919080806020026020016040519081016040528093929190818152602001838360200280828437600081840152601f19601f8201169050808301925050505050505091929192905050506108bb565b604051808215151515815260200191505060405180910390f35b6103d7600480360360208110156103ab57600080fd5b81019080803573ffffffffffffffffffffffffffffffffffffffff16906020019092919050505061095e565b005b60008060009054906101000a900473ffffffffffffffffffffffffffffffffffffffff1673ffffffffffffffffffffffffffffffffffffffff163373ffffffffffffffffffffffffffffffffffffffff161461043457600080fd5b60008090505b82518110156104765761045f83828151811061045257fe5b602002602001015161047c565b1561046957600191505b808060010191505061043a565b50919050565b60008060009054906101000a900473ffffffffffffffffffffffffffffffffffffffff1673ffffffffffffffffffffffffffffffffffffffff163373ffffffffffffffffffffffffffffffffffffffff16146104d757600080fd5b600160008373ffffffffffffffffffffffffffffffffffffffff1673ffffffffffffffffffffffffffffffffffffffff16815260200190815260200160002060009054906101000a900460ff16156105e9576000600160008473ffffffffffffffffffffffffffffffffffffffff1673ffffffffffffffffffffffffffffffffffffffff16815260200190815260200160002060006101000a81548160ff0219169083151502179055507ff1abf01a1043b7c244d128e8595cf0c1d10743b022b03a02dffd8ca3bf729f5a82604051808273ffffffffffffffffffffffffffffffffffffffff1673ffffffffffffffffffffffffffffffffffffffff16815260200191505060405180910390a1600190505b919050565b6000809054906101000a900473ffffffffffffffffffffffffffffffffffffffff1673ffffffffffffffffffffffffffffffffffffffff163373ffffffffffffffffffffffffffffffffffffffff161461064757600080fd5b600073ffffffffffffffffffffffffffffffffffffffff166000809054906101000a900473ffffffffffffffffffffffffffffffffffffffff1673ffffffffffffffffffffffffffffffffffffffff167f8be0079c531659141344cd1fd0a4f28419497f9722a3daafe3b4186f6b6457e060405160405180910390a360008060006101000a81548173ffffffffffffffffffffffffffffffffffffffff021916908373ffffffffffffffffffffffffffffffffffffffff160217905550565b60008060009054906101000a900473ffffffffffffffffffffffffffffffffffffffff1673ffffffffffffffffffffffffffffffffffffffff163373ffffffffffffffffffffffffffffffffffffffff161461076157600080fd5b600160008373ffffffffffffffffffffffffffffffffffffffff1673ffffffffffffffffffffffffffffffffffffffff16815260200190815260200160002060009054906101000a900460ff166108715760018060008473ffffffffffffffffffffffffffffffffffffffff1673ffffffffffffffffffffffffffffffffffffffff16815260200190815260200160002060006101000a81548160ff0219169083151502179055507fd1bba68c128cc3f427e5831b3c6f99f480b6efa6b9e80c757768f6124158cc3f82604051808273ffffffffffffffffffffffffffffffffffffffff1673ffffffffffffffffffffffffffffffffffffffff16815260200191505060405180910390a1600190505b919050565b6000809054906101000a900473ffffffffffffffffffffffffffffffffffffffff1681565b60016020528060005260406000206000915054906101000a900460ff1681565b60008060009054906101000a900473ffffffffffffffffffffffffffffffffffffffff1673ffffffffffffffffffffffffffffffffffffffff163373ffffffffffffffffffffffffffffffffffffffff161461091657600080fd5b60008090505b82518110156109585761094183828151811061093457fe5b6020026020010151610706565b1561094b57600191505b808060010191505061091c565b50919050565b6000809054906101000a900473ffffffffffffffffffffffffffffffffffffffff1673ffffffffffffffffffffffffffffffffffffffff163373ffffffffffffffffffffffffffffffffffffffff16146109b757600080fd5b600073ffffffffffffffffffffffffffffffffffffffff168173ffffffffffffffffffffffffffffffffffffffff161415610a3d576040517f08c379a0000000000000000000000000000000000000000000000000000000008152600401808060200182810382526026815260200180610afc6026913960400191505060405180910390fd5b8073ffffffffffffffffffffffffffffffffffffffff166000809054906101000a900473ffffffffffffffffffffffffffffffffffffffff1673ffffffffffffffffffffffffffffffffffffffff167f8be0079c531659141344cd1fd0a4f28419497f9722a3daafe3b4186f6b6457e060405160405180910390a3806000806101000a81548173ffffffffffffffffffffffffffffffffffffffff021916908373ffffffffffffffffffffffffffffffffffffffff1602179055505056fe4f776e61626c653a206e6577206f776e657220697320746865207a65726f2061646472657373a265627a7a72315820c6f03385fb3ff91b3dc8c31efd23894b96061d1ddef498189aaca5da2b4436f564736f6c63430005100032",
  "source": "pragma solidity >= 0.5.0 < 0.7.0;\n\nimport \"./Ownable.sol\";\n\n/**\n * @title Whitelist\n * @dev The Whitelist contract has a whitelist of addresses, and provides basic authorization control functions.\n * @dev This simplifies the implementation of \"user permissions\".\n */\ncontract Whitelist is Ownable {\n    mapping (address => bool) public whitelist;\n\n    event WhitelistedAddressAdded(address addr);\n    event WhitelistedAddressRemoved(address addr);\n\n     /**\n      * @dev Throws if called by any account that's not whitelisted.\n      */\n     modifier onlyWhitelisted() {\n         require(whitelist[msg.sender]);\n         _;\n     }\n\n     /**\n      * @dev add an address to the whitelist\n      * @param addr address\n      * @return true if the address was added to the whitelist, false if the address was already in the whitelist\n      */\n     function addAddressToWhitelist(address addr) onlyOwner public returns (bool success) {\n         if (!whitelist[addr]) {\n             whitelist[addr] = true;\n             emit WhitelistedAddressAdded(addr);\n             success = true;\n         }\n     }\n\n     /**\n      * @dev add addresses to the whitelist\n      * @param addrs addresses\n      * @return true if at least one address was added to the whitelist,\n      * false if all addresses were already in the whitelist\n      */\n     function addAddressesToWhitelist(address[] memory addrs) onlyOwner public returns (bool success) {\n         for (uint256 i = 0; i < addrs.length; i++) {\n             if (addAddressToWhitelist(addrs[i])) {\n                 success = true;\n             }\n         }\n     }\n\n     /**\n      * @dev remove an address from the whitelist\n      * @param addr address\n      * @return true if the address was removed from the whitelist,\n      * false if the address wasn't in the whitelist in the first place\n      */\n     function removeAddressFromWhitelist(address addr) onlyOwner public returns (bool success) {\n         if (whitelist[addr]) {\n             whitelist[addr] = false;\n             emit WhitelistedAddressRemoved(addr);\n             success = true;\n         }\n     }\n\n     /**\n      * @dev remove addresses from the whitelist\n      * @param addrs addresses\n      * @return true if at least one address was removed from the whitelist,\n      * false if all addresses weren't in the whitelist in the first place\n      */\n     function removeAddressesFromWhitelist(address[] memory addrs) onlyOwner public returns (bool success) {\n         for (uint256 i = 0; i < addrs.length; i++) {\n             if (removeAddressFromWhitelist(addrs[i])) {\n                 success = true;\n             }\n         }\n     }\n}\n",
  "sourcePath": "/Users/hurley/CrowdTaskManagementFrontend/SocialProof/solidity/contracts/Whitelist.sol",
  "compiler": {
    "name": "solc",
    "version": "0.5.16+commit.9c3226ce.Emscripten.clang"
  },
  "schemaVersion": "3.1.0",
  "updatedAt": "2020-05-15T15:32:59.370Z",
  "devdoc": {
    "details": "The Whitelist contract has a whitelist of addresses, and provides basic authorization control functions.This simplifies the implementation of \"user permissions\".",
    "methods": {
      "addAddressToWhitelist(address)": {
        "details": "add an address to the whitelist",
        "params": {
          "addr": "address"
        },
        "return": "true if the address was added to the whitelist, false if the address was already in the whitelist"
      },
      "addAddressesToWhitelist(address[])": {
        "details": "add addresses to the whitelist",
        "params": {
          "addrs": "addresses"
        },
        "return": "true if at least one address was added to the whitelist, false if all addresses were already in the whitelist"
      },
      "removeAddressFromWhitelist(address)": {
        "details": "remove an address from the whitelist",
        "params": {
          "addr": "address"
        },
        "return": "true if the address was removed from the whitelist, false if the address wasn't in the whitelist in the first place"
      },
      "removeAddressesFromWhitelist(address[])": {
        "details": "remove addresses from the whitelist",
        "params": {
          "addrs": "addresses"
        },
        "return": "true if at least one address was removed from the whitelist, false if all addresses weren't in the whitelist in the first place"
      },
      "renounceOwnership()": {
        "details": "Leaves the contract without owner. It will not be possible to call `onlyOwner` functions anymore. Can only be called by the current owner.     * NOTE: Renouncing ownership will leave the contract without an owner, thereby removing any functionality that is only available to the owner."
      },
      "transferOwnership(address)": {
        "details": "Transfers ownership of the contract to a new account (`newOwner`). Can only be called by the current owner."
      }
    },
    "title": "Whitelist"
  },
  "userdoc": {
    "methods": {}
  }
}